:100000000C942A000C9430220C9463220C949622B7
:100010000C9447000C9447000C9447000C94470044
:100020000C9447000C9447000C9447000C94470034
:100030000C9447000C9447000C9447000C94470024
:100040000C9431210C9447000C9447000C94470009
:100050000C94470011241FBECFE5D8E0DEBFCDBF12
:1000600012E0A0E6B0E0ECE9F6E502C005900D92E2
:10007000A630B107D9F712E0A6E0B2E001C01D92A8
:10008000A732B107E1F70E9455290C944C2B0C9430
:100090000000EF92FF920F931F937B018C0120E0F1
:1000A00030E040E05FE40E94F50388238CF0C80153
:1000B000B70120E030E040E05FE40E94C1010E940F
:1000C000B3049B01AC01205030404040504806C072
:1000D000C801B7010E94B3049B01AC01B901CA0178
:1000E0001F910F91FF90EF900895A0E0B0E0EBE733
:1000F000F0E00C94152BDC012B01FA019C9192305D
:1001000008F439C1EB018881823008F433C194309E
:1001100069F4843009F02FC111969C91119789815F
:10012000981709F428C1ABEBB0E025C1843009F47D
:1001300021C18230A9F4923009F01DC19A01AD01AC
:1001400088E0EA010990AE01E90109929E0181501F
:10015000C1F7E201898111969C918923818308C1AD
:10016000923009F407C112962D903C901397EB0141
:100170008A819B811496AD90BD90CD90DC901797AD
:10018000EC80FD800E811F819101281B390BB90184
:1001900037FF04C066277727621B730B6032710537
:1001A0000CF061C0121613066CF537014801062EDB
:1001B00004C096948794779467940A94D2F721E0C8
:1001C00030E040E050E004C0220F331F441F551FB1
:1001D0006A95D2F721503040404050402E213F21B7
:1001E00040235123211531054105510521F021E01E
:1001F00030E040E050E079018A01E628F72808293C
:1002000019293CC0232BD1F1260E371E350146019A
:10021000062E04C096948794779467940A94D2F734
:1002200021E030E040E050E004C0220F331F441FC3
:10023000551F6A95D2F721503040404050402A2146
:100240003B214C215D21211531054105510521F04E
:1002500021E030E040E050E059016A01A628B728CB
:10026000C828D9280BC0821593052CF01C01AA249C
:10027000BB24650103C0EE24FF24870111969C91E5
:10028000D20111968C91981709F445C0992339F041
:10029000A80197012A193B094C095D0906C0A6016E
:1002A00095012E193F09400B510B57FD08C01182D3
:1002B0003382228224833583468357831DC081E0A5
:1002C00081833382228288279927DC01821B930B4A
:1002D000A40BB50B84839583A683B7830DC0220F2F
:1002E000331F441F551F24833583468357838281E0
:1002F000938101979383828324813581468157813D
:10030000DA01C9010197A109B1098F5F9F4FAF4F72
:10031000BF4328F30BC0918333822282EA0CFB1C7B
:100320000C1D1D1DE482F5820683178383E0808304
:10033000248135814681578157FF1AC0C901AA27F8
:1003400097FDA095BA2F81709070A070B0705695EF
:10035000479537952795822B932BA42BB52B848318
:100360009583A683B7838281938101969383828349
:10037000DF0101C0D201CD01CDB7DEB7E2E10C94BF
:10038000312BA0E2B0E0E7ECF1E00C94212B698383
:100390007A838B839C832D833E834F835887E9E048
:1003A000EE2EF12CEC0EFD1ECE010196B7010E943F
:1003B000A4068E010F5E1F4FCE010596B8010E9464
:1003C000A4068A8991E089278A8BC701B801AE010A
:1003D000475E5F4F0E9475000E94CF05A096E6E041
:1003E0000C943D2BA0E2B0E0E8EFF1E00C94212B5F
:1003F00069837A838B839C832D833E834F835887C5
:10040000F9E0EF2EF12CEC0EFD1ECE010196B701A6
:100410000E94A4068E010F5E1F4FCE010596B80103
:100420000E94A406C701B801AE01475E5F4F0E945B
:1004300075000E94CF05A096E6E00C943D2BA0E24B
:10044000B0E0E5E2F2E00C94152B69837A838B83AC
:100450009C832D833E834F835887CE010196BE0136
:10046000675F7F4F0E94A406CE010596BE016F5EB6
:100470007F4F0E94A4069985923088F08989823046
:10048000C8F0943019F4823051F404C0843029F457
:10049000923081F48BEB90E0C6C0923049F420E0BA
:1004A0009A858A89981321E02A87CE010996BBC0D4
:1004B000823049F420E09A858A89981321E02A8BBA
:1004C000CE014196B0C02D843E844F8458886D88FB
:1004D0007E888F88988CEE24FF248701AA24BB2471
:1004E000650140E050E060E070E0E0E0F0E0C10174
:1004F00081709070892BE9F0E60CF71C081D191D1E
:100500009A01AB012A0D3B1D4C1D5D1D80E090E062
:10051000A0E0B0E0E614F7040805190520F481E036
:1005200090E0A0E0B0E0BA01A901480F591F6A1F8E
:100530007B1FAA0CBB1CCC1CDD1C97FE08C081E0F5
:1005400090E0A0E0B0E0A82AB92ACA2ADB2A3196B6
:10055000E032F10549F0660C771C881C991C569412
:10056000479437942794C3CFFA85EA892B893C892D
:100570008B859C85280F391F2E5F3F4F17C0CA01FE
:1005800081709070892B61F016950795F794E79428
:1005900080E090E0A0E0B0E8E82AF92A0A2B1B2BC3
:1005A00076956795579547952F5F3F4F77FDE7CF36
:1005B0000CC0440F551F661F771F17FD4160EE0CDE
:1005C000FF1C001F111F21503040403090E05907A0
:1005D00090E0690790E4790760F32B8F3C8FDB0193
:1005E000CA018F779070A070B07080349105A1051A
:1005F000B10561F447FD0AC0E114F10401051105DC
:1006000029F0405C5F4F6F4F7F4F40781A8EFE1786
:1006100011F081E08A8F4D8F5E8F6F8F78A383E01A
:10062000898FCE0149960E94CF05A096E2E10C94F5
:10063000312BA8E1B0E0EFE1F3E00C941D2B6983CE
:100640007A838B839C832D833E834F835887B9E0C5
:10065000EB2EF12CEC0EFD1ECE010196B7010E948F
:10066000A4068E010F5E1F4FCE010596B8010E94B1
:10067000A4062985223008F47EC03989323010F46E
:10068000B8017CC08A859A8989278A87243011F02D
:10069000223031F4231709F06EC06BEB70E06EC0AE
:1006A000343039F41D861E861F86188A1C861B86E8
:1006B00004C0323021F484E08987B7015FC02B8504
:1006C0003C858B899C89281B390B3C872B87ED84C3
:1006D000FE840F851889AD88BE88CF88D88CEA142F
:1006E000FB040C051D0540F4EE0CFF1C001F111F40
:1006F000215030403C872B8720E030E040E050E044
:1007000080E090E0A0E0B0E460E070E0EA14FB0478
:100710000C051D0540F0282B392B4A2B5B2BEA18C2
:10072000FB080C091D09B695A79597958795EE0CC2
:10073000FF1C001F111F6F5F7F4F6F31710531F775
:10074000DA01C9018F779070A070B0708034910584
:10075000A105B10561F427FD0AC0E114F10401050A
:10076000110529F0205C3F4F4F4F5F4F20782D87B8
:100770003E874F87588BBE01675F7F4FCB010E943A
:10078000CF056896EAE00C94392BA8E1B0E0EBECD9
:10079000F3E00C94212B69837A838B839C832D83D4
:1007A0003E834F83588789E0E82EF12CEC0EFD1E26
:1007B000CE010196B7010E94A4068E010F5E1F4F65
:1007C000CE010596B8010E94A4068985823040F0CA
:1007D0008989823028F0C701B8010E941C0701C036
:1007E0008FEF6896E6E00C943D2BA8E1B0E0EBEFCC
:1007F000F3E00C94212B69837A838B839C832D8374
:100800003E834F83588789E0E82EF12CEC0EFD1EC5
:10081000CE010196B7010E94A4068E010F5E1F4F04
:10082000CE010596B8010E94A4068985823040F069
:100830008989823028F0C701B8010E941C0701C0D5
:100840008FEF6896E6E00C943D2BA8E1B0E0EBE278
:10085000F4E00C94212B69837A838B839C832D8312
:100860003E834F83588789E0E82EF12CEC0EFD1E65
:10087000CE010196B7010E94A4068E010F5E1F4FA4
:10088000CE010596B8010E94A4068985823040F009
:100890008989823028F0C701B8010E941C0701C075
:1008A00081E06896E6E00C943D2BA8E0B0E0EBE533
:1008B000F4E00C941E2B9B01AC0183E08983DA01E8
:1008C000C9018827B7FD83959927AA27BB27B82E8A
:1008D000211531054105510519F482E089833AC09B
:1008E0008823A9F0203080E0380780E0480780E8BE
:1008F000580729F460E070E080E09FEC30C0EE24FF
:10090000FF248701E21AF30A040B150B02C07901D8
:100910008A018EE1C82ED12CDC82CB82ED82FE8250
:100920000F831887C801B7010E9480050197181628
:10093000190684F4082E04C0EE0CFF1C001F111FC2
:100940000A94D2F7ED82FE820F831887C81AD90A5B
:10095000DC82CB82BA82CE0101960E94CF05289616
:10096000E9E00C943A2BACE0B0E0E9EBF4E00C9455
:10097000252B69837A838B839C83CE010196BE01EC
:100980006B5F7F4F0E94A4068D81823061F18230BF
:1009900050F1843021F48E81882351F12EC02F81B3
:1009A000388537FD20C06E812F3131051CF066235C
:1009B000F9F023C08EE190E0821B930B29853A85E4
:1009C0004B855C8504C056954795379527958A9544
:1009D000D2F76623B1F050954095309521953F4F61
:1009E0004F4F5F4F0EC020E030E040E050E009C0C4
:1009F0002FEF3FEF4FEF5FE704C020E030E040E033
:100A000050E8B901CA012C96E2E00C94412BA8E011
:100A1000B0E0EDE0F5E00C941D2B7B018C0161153D
:100A200071058105910519F482E0898360C083E036
:100A300089838EE1C82ED12CDC82CB82ED82FE82AE
:100A40000F831887C801B7010E948005FC01319708
:100A5000F7FF3BC0222733272E1B3F0B57016801AE
:100A6000022E04C0D694C794B794A7940A94D2F7E0
:100A700040E050E060E070E081E090E0A0E0B0E0B5
:100A800004C0880F991FAA1FBB1F2A95D2F7019790
:100A9000A109B1098E219F21A023B1230097A105AF
:100AA000B10521F041E050E060E070E04A295B29A7
:100AB0006C297D294D835E836F8378878EE190E07A
:100AC0008E1B9F0B9C838B8312C0309781F00E2E60
:100AD00004C0EE0CFF1C001F111F0A94D2F7ED8218
:100AE000FE820F831887CE1ADF0ADC82CB821A823D
:100AF000CE0101960E94CF052896EAE00C94392B8E
:100B0000EF92FF920F931F937B018C0180E0E81618
:100B100080E0F80681E0080780E0180788F48FEF8E
:100B2000E816F1040105110531F028F088E090E0A5
:100B3000A0E0B0E017C080E090E0A0E0B0E012C01C
:100B400080E0E81680E0F80680E0080781E01807FA
:100B500028F088E190E0A0E0B0E004C080E190E0FF
:100B6000A0E0B0E020E230E040E050E0281B390B8C
:100B70004A0B5B0B04C016950795F794E7948A958A
:100B8000D2F7F701ED53FF4F8081281B310941094E
:100B90005109C9011F910F91FF90EF900895DF92C5
:100BA000EF92FF920F931F93FC01E480F580068182
:100BB0001781D1808081823048F480E090E0A0E10C
:100BC000B0E0E82AF92A0A2B1B2BA5C0843009F4CF
:100BD0009FC0823021F4EE24FF24870105C0E11478
:100BE000F1040105110519F4E0E0F0E096C062811E
:100BF00073819FEF623879070CF05BC022E83FEF0A
:100C0000261B370B2A3131052CF020E030E040E084
:100C100050E02AC0B801A701022E04C0769567955E
:100C2000579547950A94D2F781E090E0A0E0B0E0B4
:100C300004C0880F991FAA1FBB1F2A95D2F70197DE
:100C4000A109B1098E219F21A023B1230097A105FD
:100C5000B10521F081E090E0A0E0B0E09A01AB01A5
:100C6000282B392B4A2B5B2BDA01C9018F77907027
:100C7000A070B07080349105A105B10539F427FF4B
:100C800009C0205C3F4F4F4F5F4F04C0215C3F4F76
:100C90004F4F5F4FE0E0F0E02030A0E03A07A0E0E7
:100CA0004A07A0E45A0710F0E1E0F0E079018A0178
:100CB00027C06038710564F5FB01E158FF4FD8018A
:100CC000C7018F779070A070B07080349105A10536
:100CD000B10539F4E7FE0DC080E490E0A0E0B0E09B
:100CE00004C08FE390E0A0E0B0E0E80EF91E0A1F18
:100CF0001B1F17FF05C016950795F794E7943196CB
:100D000087E016950795F794E7948A95D1F705C083
:100D1000EE24FF248701EFEFF0E06E2F6795662742
:100D20006795902F9F77D794DD24D7948E2F869543
:100D3000492F462B582F5D29B701CA011F910F91EA
:100D4000FF90EF90DF900895FC01DB01408151811D
:100D50002281622F6F7770E0221F2227221F93814A
:100D6000892F880F822B282F30E0991F9927991FF0
:100D700011969C93119721153105A9F5411551053F
:100D80006105710511F482E037C082E89FEF139688
:100D90009C938E9312979A01AB0167E0220F331F49
:100DA000441F551F6A95D1F783E08C930DC0220F25
:100DB000331F441F551F12968D919C9113970197D5
:100DC00013969C938E931297203080E0380780E032
:100DD000480780E4580758F314962D933D934D939C
:100DE0005C93179708952F3F310579F4411551050C
:100DF0006105710519F484E08C93089564FF03C0C4
:100E000081E08C9312C01C9210C02F573040139673
:100E10003C932E93129783E08C9387E0440F551FE9
:100E2000661F771F8A95D1F7706414964D935D9372
:100E30006D937C93179708951F93DC01FB019C91A0
:100E4000923008F447C08081823008F443C0943067
:100E500051F411961C91843099F58181682F70E0CE
:100E6000611B71093FC0843021F0923031F482302F
:100E7000B9F18181882389F12DC011961C911197B8
:100E80008230F1F081811817D9F412962D913C919E
:100E90001397828193818217930794F0281739075B
:100EA000BCF014968D919D910D90BC91A02D248144
:100EB000358146815781281739074A075B0718F49F
:100EC000112341F00AC082179307A407B50740F425
:100ED000112319F061E070E005C06FEF7FEF02C0F1
:100EE00060E070E0CB011F910895AF92BF92CF9266
:100EF000DF92EF92FF920F931F93DF93CF93CDB7C3
:100F0000DEB768970FB6F894DEBF0FBECDBF698716
:100F10007A878B879C872D873E874F87588BE98AF6
:100F2000FA8A0B8B1C8BAD8ABE8ACF8AD88E2D8510
:100F30003E854F85588989899A89AB89BC89790111
:100F40008A01E81AF90A0A0B1B0BD801C701898329
:100F50009A83AB83BC832D893E894F89588D8985BF
:100F60009A85AB85BC8579018A01E81AF90A0A0BD2
:100F70001B0BD801C7018D839E83AF83B8878DA1DA
:100F80009EA1AFA1B8A52D813E814F815885BC019E
:100F9000CD010E94A52ADC01CB0129813A814B8138
:100FA0005C81BC01CD010E94FA2ADA01C901BC01B1
:100FB000CD0168960FB6F894DEBF0FBECDBFCF91BE
:100FC000DF911F910F91FF90EF90DF90CF90BF9036
:100FD000AF900895DF93CF93CDB7DEB781E00E9445
:100FE000FB1B80E00E944C2483E062E041E00E9411
:100FF0000B2683E062E041E00E94AF2481E067E0DD
:1010000041E00E940B2681E067E040E00E94AF24AF
:10101000AAE5B0E0EAE5F0E080818F7B8C930E9446
:10102000FB09CF91DF910895DF93CF93CDB7DEB762
:1010300065970FB6F894DEBF0FBECDBF8D8B1A8AB1
:10104000188A1F8680E061E00E94C41CA5C0CE0102
:1010500043969E012C5E3F4FB9010E94FF18898B79
:1010600089898A3008F098C08989805D0E94161CA1
:101070008F8598899C01220F331FC901880F991F02
:10108000880F991F280F391F8989882F90E0820FB8
:10109000931F988B8F878A898F5F8A8B8D89813088
:1010A00009F07AC080E090E0A8E4B3E48B879C87E5
:1010B000AD87BE876B857C858D859E8520E030E081
:1010C0004AE755E40E941F02DC01CB018F83988719
:1010D000A987BA876F81788589859A8520E030E075
:1010E00040E85FE30E94250488232CF481E090E02F
:1010F0009E838D833FC06F81788589859A8520E0A6
:101100003FEF4FE757E40E94C50318164CF56B8577
:101110007C858D859E8520E030E040E251E40E9490
:101120001F02DC01CB01BC01CD010E944900DC01A2
:10113000CB019E838D830FC080E991E09C838B83DC
:101140008B819C810197F1F79C838B838D819E819C
:1011500001979E838D838D819E81009769F714C0CE
:101160006F81788589859A850E944900DC01CB01D1
:101170009E838D838D819E819A83898389819A81C3
:101180000197F1F79A8389838A89815061E00E94EF
:10119000C41C8AE20E94161C8A89843008F457CF46
:1011A0008F85988965960FB6F894DEBF0FBECDBFC8
:1011B000CF91DF910895DF93CF93CDB7DEB783E072
:1011C00062E040E00E940B2683E062E040E00E9483
:1011D000AF2481E067E040E00E940B2681E067E0F9
:1011E00041E00E94AF2480E00E940E24CF91DF9165
:1011F0000895DF93CF93CDB7DEB767970FB6F89416
:10120000DEBF0FBECDBF9F8B8E8B81E08D8BEE89B5
:10121000FF89108280E690E00E94281D83E08C8B7D
:1012200080E00E9414089B8B8A8B198A188A8A890D
:101230009B8924E0823D920709F0B9C081E00E94B9
:10124000FB1B89E690E00E94281D86E061E00E9479
:10125000C41C8C89805D0E94161C88E790E00E9467
:10126000281D1FC01F860AC08F8561E00E94C41C14
:1012700080E20E94161C8F858F5F8F878F85843058
:1012800098F386E061E00E94C41C8C89805D0E9416
:10129000161C81E00E941408998B888B8C898150E0
:1012A0008C8B8889998920E1813E920719F08C897D
:1012B0008823C1F680E090E0A8E4B3E48B879C87A4
:1012C000AD87BE876B857C858D859E8520E030E06F
:1012D0004AE755E40E941F02DC01CB018F83988707
:1012E000A987BA876F81788589859A8520E030E063
:1012F00040E85FE30E94250488232CF481E090E01D
:101300009E838D833FC06F81788589859A8520E093
:101310003FEF4FE757E40E94C50318164CF56B8565
:101320007C858D859E8520E030E040E251E40E947E
:101330001F02DC01CB01BC01CD010E944900DC0190
:10134000CB019E838D830FC080E991E09C838B83CA
:101350008B819C810197F1F79C838B838D819E818A
:1013600001979E838D838D819E81009769F714C0BC
:101370006F81788589859A850E944900DC01CB01BF
:101380009E838D838D819E819A83898389819A81B1
:101390000197F1F79A8389830E94DB08EE89FF8920
:1013A00010828C89882351F483E08D8B07C082E002
:1013B0008D8B0E94DB08EE89FF8910828D896796EC
:1013C0000FB6F894DEBF0FBECDBFCF91DF91089569
:1013D000DF93CF93CDB7DEB723EC31E086E0B901E0
:1013E0000E94E81C2BEC31E087E0B9010E94E81C68
:1013F000CF91DF910895DF93CF93CDB7DEB76D978F
:101400000FB6F894DEBF0FBECDBF0E94E80980E0A2
:1014100060E00E94C41C80E890E00E94281D1D8EA0
:10142000FDC08D8D815061E00E94C41C80E20E944D
:10143000161C8D8D61E00E94C41C86E00E94161C63
:1014400080E090E0A8ECB2E4898F9A8FAB8FBC8FDC
:10145000698D7A8D8B8D9C8D20E030E04AE755E4D4
:101460000E941F02DC01CB018D8B9E8BAF8BB88F4E
:101470006D897E898F89988D20E030E040E85FE3B8
:101480000E94250488232CF481E090E09C8B8B8BB8
:101490003FC06D897E898F89988D20E03FEF4FE7AF
:1014A00057E40E94C50318164CF5698D7A8D8B8D13
:1014B0009C8D20E030E040E251E40E941F02DC01FC
:1014C000CB01BC01CD010E944900DC01CB019C8B0A
:1014D0008B8B0FC080E991E09A8B898B89899A89DF
:1014E0000197F1F79A8B898B8B899C8901979C8B4B
:1014F0008B8B8B899C89009769F714C06D897E89D5
:101500008F89988D0E944900DC01CB019C8B8B8BCD
:101510008B899C89988B8F878F8598890197F1F7A4
:10152000988B8F878D8D61E00E94C41C87E00E949C
:10153000161C80E090E0A8ECB2E48B879C87AD8716
:10154000BE876B857C858D859E8520E030E04AE7EF
:1015500055E40E941F02DC01CB018F839887A98785
:10156000BA876F81788589859A8520E030E040E8E8
:101570005FE30E94250488232CF481E090E09E83A1
:101580008D833FC06F81788589859A8520E03FEF04
:101590004FE757E40E94C50318164CF56B857C8510
:1015A0008D859E8520E030E040E251E40E941F02DC
:1015B000DC01CB01BC01CD010E944900DC01CB0163
:1015C0009E838D830FC080E991E09C838B838B8108
:1015D0009C810197F1F79C838B838D819E8101977C
:1015E0009E838D838D819E81009769F714C06F81E2
:1015F000788589859A850E944900DC01CB019E830C
:101600008D838D819E819A83898389819A810197B7
:10161000F1F79A8389838D8D8F5F8D8F8D8D8031CA
:1016200008F4FFCE81E00E94FB1B6D960FB6F89484
:10163000DEBF0FBECDBFCF91DF910895DF93CF9373
:10164000CDB7DEB76D970FB6F894DEBF0FBECDBF36
:101650000E94E80981E00E94FB1B80E060E00E949C
:10166000C41C88E890E00E94281D8FE08D8FFDC08B
:101670008D8D8F5F61E00E94C41C80E20E94161C69
:101680008D8D61E00E94C41C86E00E94161C80E0E3
:1016900090E0A8ECB2E4898F9A8FAB8FBC8F698DF4
:1016A0007A8D8B8D9C8D20E030E04AE755E40E94D6
:1016B0001F02DC01CB018D8B9E8BAF8BB88F6D89A8
:1016C0007E898F89988D20E030E040E85FE30E94BA
:1016D000250488232CF481E090E09C8B8B8B3FC009
:1016E0006D897E898F89988D20E03FEF4FE757E421
:1016F0000E94C50318164CF5698D7A8D8B8D9C8DD3
:1017000020E030E040E251E40E941F02DC01CB0106
:10171000BC01CD010E944900DC01CB019C8B8B8B6D
:101720000FC080E991E09A8B898B89899A8901970A
:10173000F1F79A8B898B8B899C8901979C8B8B8B7A
:101740008B899C89009769F714C06D897E898F8980
:10175000988D0E944900DC01CB019C8B8B8B8B897F
:101760009C89988B8F878F8598890197F1F7988B43
:101770008F878D8D61E00E94C41C87E00E94161C3B
:1017800080E090E0A8ECB2E48B879C87AD87BE87B1
:101790006B857C858D859E8520E030E04AE755E4A9
:1017A0000E941F02DC01CB018F839887A987BA872B
:1017B0006F81788589859A8520E030E040E85FE395
:1017C0000E94250488232CF481E090E09E838D8381
:1017D0003FC06F81788589859A8520E03FEF4FE78C
:1017E00057E40E94C50318164CF56B857C858D85E2
:1017F0009E8520E030E040E251E40E941F02DC01BF
:10180000CB01BC01CD010E944900DC01CB019E83CC
:101810008D830FC080E991E09C838B838B819C81B9
:101820000197F1F79C838B838D819E8101979E8325
:101830008D838D819E81009769F714C06F817885B3
:1018400089859A850E944900DC01CB019E838D83A6
:101850008D819E819A83898389819A810197F1F78D
:101860009A8389838D8D81508D8F8D8D88230CF087
:10187000FFCE81E00E94FB1B6D960FB6F894DEBF91
:101880000FBECDBFCF91DF910895DF93CF93CDB73A
:10189000DEB780911602909117020E947E18CF91B8
:1018A000DF910895DF93CF93CDB7DEB78091060225
:1018B0008F5F8093060280910602823049F4809106
:1018C00016029091170206960E94DD1610920602EB
:1018D000CF91DF910895DF93CF9300D00F92CDB7D2
:1018E000DEB79B838A8381E089838A819B8100970D
:1018F00009F44BC08A819B81909317028093160252
:10190000E0911602F0911702808191818093070285
:1019100085E49CE090930B0280930A02809116026A
:10192000909117029093090280930802E0911602A9
:10193000F09117028681978180930C0282E59CE0EA
:101940009093100280930F028091160290911702DB
:10195000069690930E0280930D02E0911602F0918C
:101960001702868197818093110282E59CE0909313
:101970001502809314028091160290911702069628
:10198000909313028093120202C083E089838981BD
:101990000F900F900F90CF91DF910895DF93CF9329
:1019A000CDB7DEB765970FB6F894DEBF0FBECDBFDB
:1019B0009D8B8C8B1A8A198A82E090E0988B8F8796
:1019C00081E00E94FB1B83E990E00E94281D80E0DB
:1019D00061E00E94C41C8AE990E00E94281DFAC0C0
:1019E00087E092E063E00E946C2080E090E0A6E156
:1019F000B3E48B879C87AD87BE876B857C858D859F
:101A00009E8520E030E04AE755E40E941F02DC0199
:101A1000CB018F839887A987BA876F81788589855D
:101A20009A8520E030E040E85FE30E9425048823A7
:101A30002CF481E090E09E838D833FC06F81788598
:101A400089859A8520E03FEF4FE757E40E94C50360
:101A500018164CF56B857C858D859E8520E030E0E1
:101A600040E251E40E941F02DC01CB01BC01CD0128
:101A70000E944900DC01CB019E838D830FC080E969
:101A800091E09C838B838B819C810197F1F79C83F0
:101A90008B838D819E8101979E838D838D819E8115
:101AA000009769F714C06F81788589859A850E94AF
:101AB0004900DC01CB019E838D838D819E819A83B9
:101AC000898389819A810197F1F79A838983E091CB
:101AD0001602F09117028285282F30E089899A89B1
:101AE00028173907D9F1E0911602F0911702828583
:101AF000882F90E09A8B898B80E060E00E94C41C64
:101B000081EA90E00E94281D80E060E00E94C41CF1
:101B100083E990E00E94281D89899A89CC01A0E080
:101B2000B0E0BC01CD010E94511D89899A898332A0
:101B3000910540F080911602909117020B960E9439
:101B400087190CC089899A898F31910538F4809161
:101B50001602909117020B960E94C719E091160287
:101B6000F0911702248135818F85988928173907CC
:101B700089F1E0911602F091170284819581988B8A
:101B80008F8780E061E00E94C41C81EA90E00E949F
:101B9000281D80E061E00E94C41C8AE990E00E9458
:101BA000281DE0911602F0911702848195812FE0A3
:101BB00030E0B9010E94C42ACB01982F88E0891B2C
:101BC0008B8B8B89882F90E0A0E0B0E0BC01CD0129
:101BD0000E94511DEC89FD898081882309F400CF82
:101BE00081E00E94FB1B65960FB6F894DEBF0FBE26
:101BF000CDBFCF91DF9108950F931F93DF93CF93C4
:101C0000CDB7DEB7CA57D0400FB6F894DEBF0FBECF
:101C1000CDBFFE01EA58FF4F91838083FE01E85853
:101C2000FF4F71836083FE01E658FF4F4083FE0142
:101C3000EB58FF4F81E08083FE01EA58FF4F80811F
:101C40009181009709F44FC6FE01E858FF4F80814B
:101C50009181CC01A0E0B0E0072E7BE0880F991FB6
:101C6000AA1FBB1F7A95D1F7702D28E631E040E01E
:101C700050E0BC01CD010E94D82ADA01C901FE0161
:101C8000ED58FF4F91838083FE01EF58FF4F118283
:101C90001082FE01E658FF4F8081813009F074C345
:101CA00063C3FE01EF58FF4F808191818370907074
:101CB000009791F4FE01EA58FF4F0190F081E02D6A
:101CC0008081FE01EA58FF4F0190F081E02D938161
:101CD000692F41E00E940B26FE01EA58FF4F019058
:101CE000F081E02D8081FE01EA58FF4F0190F081E4
:101CF000E02D9481692F40E00E940B26FE01E359FC
:101D0000FF4F80E090E0A0E4B0E480839183A28361
:101D1000B3838E0107591F4FFE01E359FF4F6081C6
:101D200071818281938120E030E04AE755E40E948E
:101D30001F02DC01CB01F80180839183A283B3836E
:101D4000FE01E759FF4F608171818281938120E01C
:101D500030E040E85FE30E942504882344F4FE015C
:101D6000E959FF4F81E090E09183808364C0FE01D8
:101D7000E759FF4F608171818281938120E03FEFBD
:101D80004FE757E40E94C50318160CF043C0FE014C
:101D9000E359FF4F608171818281938120E030E0BF
:101DA00040E251E40E941F02DC01CB018E0109597F
:101DB0001F4FBC01CD010E944900DC01CB01F8019D
:101DC000918380831FC0FE01EB59FF4F80E991E0B2
:101DD00091838083FE01EB59FF4F808191810197B0
:101DE000F1F7FE01EB59FF4F91838083DE01A95982
:101DF000BF4FFE01E959FF4F8081918101971196F4
:101E00009C938E93FE01E959FF4F80819181009749
:101E1000D1F628C08E0109591F4FFE01E759FF4F27
:101E200060817181828193810E944900DC01CB0134
:101E3000F80191838083DE01AD59BF4FFE01E9595E
:101E4000FF4F8081918111969C938E93FE01ED59F5
:101E5000FF4F808191810197F1F7FE01ED59FF4F0E
:101E600091838083FE01EF58FF4F808191818370C1
:101E700090708130910591F4FE01EA58FF4F019076
:101E8000F081E02D8081FE01EA58FF4F0190F08142
:101E9000E02D9281692F41E00E940B26FE01EA5855
:101EA000FF4F0190F081E02D8081FE01EA58FF4F45
:101EB0000190F081E02D9381692F40E00E940B2674
:101EC000FE01E15AFF4F80E090E0A0E4B0E480839F
:101ED0009183A283B3838E01055A1F4FFE01E15AFD
:101EE000FF4F608171818281938120E030E04AE779
:101EF00055E40E941F02DC01CB01F801808391832D
:101F0000A283B383FE01E55AFF4F60817181828114
:101F1000938120E030E040E85FE30E9425048823BD
:101F200044F4FE01E75AFF4F81E090E09183808303
:101F300064C0FE01E55AFF4F608171818281938107
:101F400020E03FEF4FE757E40E94C50318160CF05E
:101F500043C0FE01E15AFF4F60817181828193810C
:101F600020E030E040E251E40E941F02DC01CB019E
:101F70008E01075A1F4FBC01CD010E944900DC01B0
:101F8000CB01F801918380831FC0FE01E95AFF4F06
:101F900080E991E091838083FE01E95AFF4F8081BF
:101FA00091810197F1F7FE01E95AFF4F91838083F8
:101FB000DE01A75ABF4FFE01E75AFF4F8081918192
:101FC000019711969C938E93FE01E75AFF4F8081F3
:101FD00091810097D1F628C08E01075A1F4FFE014C
:101FE000E55AFF4F60817181828193810E9449008F
:101FF000DC01CB01F80191838083DE01AB5ABF4F36
:10200000FE01E75AFF4F8081918111969C938E9338
:10201000FE01EB5AFF4F808191810197F1F7FE019C
:10202000EB5AFF4F91838083FE01EF58FF4F808171
:102030009181837090708230910591F4FE01EA588D
:10204000FF4F0190F081E02D8081FE01EA58FF4FA3
:102050000190F081E02D9181692F41E00E940B26D3
:10206000FE01EA58FF4F0190F081E02D8081FE01D2
:10207000EA58FF4F0190F081E02D9281692F40E0F6
:102080000E940B26FE01EF5AFF4F80E090E0A0E493
:10209000B0E480839183A283B3838E01035B1F4FDF
:1020A000FE01EF5AFF4F608171818281938120E0B0
:1020B00030E04AE755E40E941F02DC01CB01F80141
:1020C00080839183A283B383FE01E35BFF4F608132
:1020D00071818281938120E030E040E85FE30E94DB
:1020E0002504882344F4FE01E55BFF4F81E090E086
:1020F0009183808364C0FE01E35BFF4F6081718147
:102100008281938120E03FEF4FE757E40E94C503AF
:1021100018160CF043C0FE01EF5AFF4F6081718129
:102120008281938120E030E040E251E40E941F026E
:10213000DC01CB018E01055B1F4FBC01CD010E946C
:102140004900DC01CB01F801918380831FC0FE01AF
:10215000E75BFF4F80E991E091838083FE01E75BBD
:10216000FF4F808191810197F1F7FE01E75BFF4FFF
:1021700091838083DE01A55BBF4FFE01E55BFF4FCE
:1021800080819181019711969C938E93FE01E55B6E
:10219000FF4F808191810097D1F628C08E01055BA9
:1021A0001F4FFE01E35BFF4F60817181828193814C
:1021B0000E944900DC01CB01F80191838083DE019C
:1021C000A95BBF4FFE01E55BFF4F808191811196B6
:1021D0009C938E93FE01E95BFF4F80819181019773
:1021E000F1F7FE01E95BFF4F91838083FE01EF5819
:1021F000FF4F80819181837090708330910591F4BD
:10220000FE01EA58FF4F0190F081E02D8081FE0130
:10221000EA58FF4F0190F081E02D9481692F41E051
:102220000E940B26FE01EA58FF4F0190F081E02D3D
:102230008081FE01EA58FF4F0190F081E02D9181ED
:10224000692F40E00E940B26FE01ED5BFF4F80E00E
:1022500090E0A0E4B0E480839183A283B3838E01F5
:10226000015C1F4FFE01ED5BFF4F60817181828138
:10227000938120E030E04AE755E40E941F02DC0130
:10228000CB01F80180839183A283B383FE01FF9683
:10229000608171818281938120E030E040E85FE3DA
:1022A0000E94250488232CF481E090E09EAF8DAF3E
:1022B00046C0FE01FF96608171818281938120E09A
:1022C0003FEF4FE757E40E94C503181664F5FE017F
:1022D000ED5BFF4F608171818281938120E030E06E
:1022E00040E251E40E941F02DC01CB01BC01CD01A0
:1022F0000E944900DC01CB019EAF8DAF0FC080E989
:1023000091E09CAF8BAF8BAD9CAD0197F1F79CAF8B
:102310008BAF8DAD9EAD01979EAF8DAF8DAD9EAD58
:10232000009769F716C0FE01FF9660817181828176
:1023300093810E944900DC01CB019EAF8DAF8DAD32
:102340009EAD9AAF89AF89AD9AAD0197F1F79AAF7B
:1023500089AFDE01AF58BF4FFE01EF58FF4F8081BC
:10236000918101968D939C93FE01EF58FF4FDE0102
:10237000AD58BF4F208131818D919C9111972817C5
:10238000390708F48ECCB4C2FE01E658FF4F8081B5
:10239000882309F0A2C291C2FE01EF58FF4F80814D
:1023A000918183709070009709F097C0FE01EA5800
:1023B000FF4F0190F081E02D8081FE01EA58FF4F30
:1023C0000190F081E02D9481692F41E00E940B265D
:1023D000FE01EA58FF4F0190F081E02D8081FE015F
:1023E000EA58FF4F0190F081E02D9181692F40E084
:1023F0000E940B2680E090E0A0E4B0E48DAB9EABA1
:10240000AFABB8AF6DA97EA98FA998AD20E030E041
:102410004AE755E40E941F02DC01CB0189AB9AAB6D
:10242000ABABBCAB69A97AA98BA99CA920E030E031
:1024300040E85FE30E94250488232CF481E090E0CB
:1024400098AB8FA73FC069A97AA98BA99CA920E066
:102450003FEF4FE757E40E94C50318164CF56DA9EE
:102460007EA98FA998AD20E030E040E251E40E94BF
:102470001F02DC01CB01BC01CD010E944900DC013F
:10248000CB0198AB8FA70FC080E991E09EA78DA7E5
:102490008DA59EA50197F1F79EA78DA78FA598A959
:1024A000019798AB8FA78FA598A9009769F7FAC1F4
:1024B00069A97AA98BA99CA90E944900DC01CB01DA
:1024C00098AB8FA78FA598A99CA78BA78BA59CA538
:1024D0000197F1F79CA78BA7E5C1FE01EF58FF4FCD
:1024E00080819181837090708130910509F097C04F
:1024F000FE01EA58FF4F0190F081E02D8081FE013E
:10250000EA58FF4F0190F081E02D9181692F41E061
:102510000E940B26FE01EA58FF4F0190F081E02D4A
:102520008081FE01EA58FF4F0190F081E02D9281F9
:10253000692F40E00E940B2680E090E0A0E4B0E428
:102540008FA398A7A9A7BAA76FA178A589A59AA5CF
:1025500020E030E04AE755E40E941F02DC01CB0195
:102560008BA39CA3ADA3BEA36BA17CA18DA19EA1B7
:1025700020E030E040E85FE30E94250488232CF44B
:1025800081E090E09AA389A33FC06BA17CA18DA1BB
:102590009EA120E03FEF4FE757E40E94C5031816C5
:1025A0004CF56FA178A589A59AA520E030E040E21E
:1025B00051E40E941F02DC01CB01BC01CD010E944D
:1025C0004900DC01CB019AA389A30FC080E991E007
:1025D00098A38F8F8F8D98A10197F1F798A38F8F74
:1025E00089A19AA101979AA389A389A19AA1009789
:1025F00069F758C16BA17CA18DA19EA10E944900E1
:10260000DC01CB019AA389A389A19AA19E8F8D8F0A
:102610008D8D9E8D0197F1F79E8F8D8F43C1FE01A9
:10262000EF58FF4F808191818370907082309105C7
:1026300009F097C0FE01EA58FF4F0190F081E02DAC
:102640008081FE01EA58FF4F0190F081E02D9281D8
:10265000692F41E00E940B26FE01EA58FF4F0190CE
:10266000F081E02D8081FE01EA58FF4F0190F0815A
:10267000E02D9381692F40E00E940B2680E090E0DE
:10268000A0E4B0E4898F9A8FAB8FBC8F698D7A8D6F
:102690008B8D9C8D20E030E04AE755E40E941F02BC
:1026A000DC01CB018D8B9E8BAF8BB88F6D897E89C2
:1026B0008F89988D20E030E040E85FE30E94250498
:1026C00088232CF481E090E09C8B8B8B3FC06D893C
:1026D0007E898F89988D20E03FEF4FE757E40E9475
:1026E000C50318164CF5698D7A8D8B8D9C8D20E075
:1026F00030E040E251E40E941F02DC01CB01BC014A
:10270000CD010E944900DC01CB019C8B8B8B0FC05B
:1027100080E991E09A8B898B89899A890197F1F7F1
:102720009A8B898B8B899C8901979C8B8B8B8B894E
:102730009C89009769F7B6C06D897E898F89988DCD
:102740000E944900DC01CB019C8B8B8B8B899C897F
:10275000988B8F878F8598890197F1F7988B8F8752
:10276000A1C0FE01EF58FF4F80819181837090706E
:102770008330910509F096C0FE01EA58FF4F0190A1
:10278000F081E02D8081FE01EA58FF4F0190F08139
:10279000E02D9381692F41E00E940B26FE01EA584B
:1027A000FF4F0190F081E02D8081FE01EA58FF4F3C
:1027B0000190F081E02D9481692F40E00E940B266A
:1027C00080E090E0A0E4B0E48B879C87AD87BE8773
:1027D0006B857C858D859E8520E030E04AE755E459
:1027E0000E941F02DC01CB018F839887A987BA87DB
:1027F0006F81788589859A8520E030E040E85FE345
:102800000E94250488232CF481E090E09E838D8330
:102810003FC06F81788589859A8520E03FEF4FE73B
:1028200057E40E94C50318164CF56B857C858D8591
:102830009E8520E030E040E251E40E941F02DC016E
:10284000CB01BC01CD010E944900DC01CB019E837C
:102850008D830FC080E991E09C838B838B819C8169
:102860000197F1F79C838B838D819E8101979E83D5
:102870008D838D819E81009769F714C06F81788563
:1028800089859A850E944900DC01CB019E838D8356
:102890008D819E819A83898389819A810197F1F73D
:1028A0009A838983DE01AF58BF4FFE01EF58FF4F77
:1028B0008081918101968D939C93FE01EF58FF4F8B
:1028C000DE01AD58BF4F208131818D919C911197D0
:1028D0002817390708F460CD0BC0FE01EB58FF4FF5
:1028E00082E0808305C0FE01EB58FF4F83E08083C8
:1028F000FE01EB58FF4F8081813009F048C0FE0196
:10290000EA58FF4F0190F081E02D8081FE01EA58E6
:10291000FF4F0190F081E02D9181692F41E00E94ED
:102920000B26FE01EA58FF4F0190F081E02D8081D7
:10293000FE01EA58FF4F0190F081E02D9281692F4E
:1029400041E00E940B26FE01EA58FF4F0190F08102
:10295000E02D8081FE01EA58FF4F0190F081E02DCB
:102960009381692F41E00E940B26FE01EA58FF4F38
:102970000190F081E02D8081FE01EA58FF4F019027
:10298000F081E02D9481692F41E00E940B26FE0129
:10299000EB58FF4F8081C658DF4F0FB6F894DEBF6B
:1029A0000FBECDBFCF91DF911F910F910895DF939F
:1029B000CF9300D000D0CDB7DEB79C838B8381E06E
:1029C000898381E08A838B819C81009709F43FC0D1
:1029D000EB81FC8180818823C9F4EB81FC818181BA
:1029E000EB81FC8192819E012E5F3F4F692FA901EF
:1029F0000E9467278A81882329F4EB81FC8181E08A
:102A0000838327C0EB81FC81138223C0EB81FC818F
:102A100080818823C9F4EB81FC818181EB81FC8179
:102A200092819E012E5F3F4F692FA9010E94672767
:102A30008A81813029F4EB81FC8181E0838309C0A4
:102A4000EB81FC81138205C082E0898302C083E0B0
:102A5000898389810F900F900F900F90CF91DF9114
:102A60000895DF93CF9300D000D0CDB7DEB78A832F
:102A70006B834C838A816B819E012F5F3F4FA9013D
:102A80000E94672799818C81892B898399818A810A
:102A9000692F0E941E270F900F900F900F90CF91DB
:102AA000DF910895DF93CF9300D000D0CDB7DEB78C
:102AB0009B838A836C8381E089838A819B810097D1
:102AC00009F46EC0EA81FB818081882379F5EA816F
:102AD000FB818281882391F4EA81FB8121818C81B1
:102AE000882F90E0FC01E351FE4F8081982F96954E
:102AF000822F67E0492F0E94311554C0EA81FB8183
:102B00008281813081F4EA81FB8121818C81882F4F
:102B100090E0FC01E351FE4F9081822F60E0492F4D
:102B20000E9431153FC082E089833CC0EA81FB816D
:102B30008081813091F5EA81FB818281882399F43B
:102B4000EA81FB8121818C81882F90E0FC01E35197
:102B5000FE4F80818695982F9095822F67E0492FB0
:102B60000E9431151FC0EA81FB818281813091F47E
:102B7000EA81FB8121818C81882F90E0FC01E35167
:102B8000FE4F8081982F9095822F67E0492F0E94F9
:102B9000311508C082E0898305C082E0898302C0C4
:102BA00083E0898389810F900F900F900F90CF91D0
:102BB000DF910895DF93CF9300D00F92CDB7DEB7AA
:102BC0009B838A8381E089838A819B81009799F125
:102BD000EA81FB818081823059F4EA81FB81838123
:102BE000EA81FB819481692F41E00E940B2625C078
:102BF000EA81FB818081882359F4EA81FB8183810A
:102C0000EA81FB819481692F40E00E940B2615C068
:102C1000EA81FB818081813059F4EA81FB818381E3
:102C2000EA81FB819481692F41E00E940B2605C057
:102C300082E0898302C083E0898389810F900F90AD
:102C40000F90CF91DF910895DF93CF9300D00F9233
:102C5000CDB7DEB79B838A8381E089838A819B819C
:102C6000009799F1EA81FB818081823059F4EA81F1
:102C7000FB818381EA81FB819481692F40E00E947E
:102C80000B2625C0EA81FB818081882359F4EA81E3
:102C9000FB818381EA81FB819481692F41E00E945D
:102CA0000B2615C0EA81FB818081813059F4EA81CD
:102CB000FB818381EA81FB819481692F40E00E943E
:102CC0000B2605C082E0898302C083E08983898165
:102CD0000F900F900F90CF91DF910895AF92BF9218
:102CE000CF92DF92EF92FF920F931F93DF93CF93D8
:102CF000CDB7DEB727970FB6F894DEBF0FBECDBFB6
:102D00009F838E8381E08B838E819F81009709F45E
:102D100040C0EE81FF81808191819E012C5F3F4FF9
:102D2000B9010E94831FEE81FF81828193815C0142
:102D3000CC24DD248C819D81CC01A0E0B0E000D0CA
:102D400000D0EDB7FEB7319680839183A283B38321
:102D500060E070E080E090E02FEF30E040E050E095
:102D6000EE24FF2487010E9475070F900F900F90AB
:102D70000F90DC01CB019A83898389819A812AE0B3
:102D800030E0B9010E94C42ACB01EE81FF81848327
:102D900002C083E08B838B8127960FB6F894DEBF49
:102DA0000FBECDBFCF91DF911F910F91FF90EF909C
:102DB000DF90CF90BF90AF900895AF92BF92CF9227
:102DC000DF92EF92FF920F931F93DF93CF9300D088
:102DD00000D00F92CDB7DEB79D838C8381E08B83CB
:102DE0008C819D810097C1F1EC81FD81828193816D
:102DF0005C01CC24DD24EC81FD8180819181CC01BA
:102E0000A0E0B0E000D000D0EDB7FEB731968083EF
:102E10009183A283B38360E070E080E090E02FEFC5
:102E200030E040E050E0EE24FF2487010E94750767
:102E30000F900F900F900F90DC01CB019A83898344
:102E400089819A812AE030E0B9010E94C42ACB012D
:102E5000EC81FD81848302C083E08B838B810F90A2
:102E60000F900F900F900F90CF91DF911F910F91C6
:102E7000FF90EF90DF90CF90BF90AF900895DF93D9
:102E8000CF930F92CDB7DEB789838981282F30E0A9
:102E9000C901880F991F880F991F880F991F820FEA
:102EA000931F25E030E0B9010E94C42ACB0180962F
:102EB0000F90CF91DF910895DF93CF9300D00F92C1
:102EC000CDB7DEB79B838A8381E089838A819B812A
:102ED000009719F1EA81FB818081882359F4EA8106
:102EE000FB818181EA81FB819281692F41E00E940F
:102EF0000B2615C0EA81FB818081813059F4EA817B
:102F0000FB818181EA81FB819281692F40E00E94EF
:102F10000B2605C082E0898302C083E08983898112
:102F20000F900F900F90CF91DF910895DF93CF9383
:102F300000D00F92CDB7DEB79B838A8381E089836F
:102F40008A819B81009719F1EA81FB818081882326
:102F500059F4EA81FB818181EA81FB819281692FA9
:102F600040E00E940B2615C0EA81FB818081813000
:102F700059F4EA81FB818181EA81FB819281692F89
:102F800041E00E940B2605C082E0898302C083E0F5
:102F9000898389810F900F900F90CF91DF910895D1
:102FA000DF93CF9300D00F92CDB7DEB79B838A8398
:102FB00081E089838A819B81009751F0EA81FB81BE
:102FC0008181EA81FB819281692F0E949F2802C042
:102FD00083E0898389810F900F900F90CF91DF91CB
:102FE0000895AF92BF92CF92DF92EF92FF920F932C
:102FF0001F93DF93CF93CDB7DEB727970FB6F89423
:10300000DEBF0FBECDBF9F838E8381E08B838E8119
:103010009F81009709F45EC0EE81FF8180819181DC
:103020009E012C5F3F4FB9010E94831FEE81FF81FB
:10303000828193815C01CC24DD248C819D81CC0133
:10304000A0E0B0E000D000D0EDB7FEB731968083AD
:103050009183A283B38360E070E080E090E02FEF83
:1030600030E040E050E0EE24FF2487010E94750725
:103070000F900F900F900F90DC01CB019A83898302
:1030800089819A81CC01A0E0B0E0BC01CD010E9411
:103090000705DC01CB01BC01CD0120E030E447EEA7
:1030A00054E40E941903DC01CB01BC01CD0120E0F6
:1030B00030E048EC52E40E941F02DC01CB01BC016D
:1030C000CD010E944900DC01CB01EE81FF81958397
:1030D000848302C083E08B838B8127960FB6F8949C
:1030E000DEBF0FBECDBFCF91DF911F910F91FF903B
:1030F000EF90DF90CF90BF90AF900895AF92BF92C6
:10310000CF92DF92EF92FF920F931F93DF93CF93B3
:1031100000D000D00F92CDB7DEB79D838C8381E0C5
:103120008B838C819D81009709F456C0EC81FD81D1
:10313000828193815C01CC24DD24EC81FD8180813E
:103140009181CC01A0E0B0E000D000D0EDB7FEB797
:10315000319680839183A283B38360E070E080E046
:1031600090E02FEF30E040E050E0EE24FF248701B4
:103170000E9475070F900F900F900F90DC01CB010C
:103180009A83898389819A81CC01A0E0B0E0BC0157
:10319000CD010E940705DC01CB01BC01CD0120E07F
:1031A00030E447EE54E40E941903DC01CB01BC017A
:1031B000CD0120E030E048EC52E40E941F02DC0127
:1031C000CB01BC01CD010E944900DC01CB01EC81A7
:1031D000FD819583848302C083E08B838B810F9074
:1031E0000F900F900F900F90CF91DF911F910F9143
:1031F000FF90EF90DF90CF90BF90AF900895DF9356
:10320000CF93CDB7DEB729970FB6F894DEBF0FBEC8
:10321000CDBF9E838D8378876F838FEF89831A82DA
:1032200066C08A81882F90E0FC01ED51FE4F9081AD
:1032300083E0692F40E00E940B261B8245C08B81F2
:10324000882F90E0FC01E951FE4F90819E012C5F98
:103250003F4F81E0692FA9010E9467278C81882355
:1032600081F58B81482F50E08A81282F30E0CA01F8
:10327000880F991F880F991F820F931FFC01ED5231
:10328000FE4F808189830FC08B81882F90E0FC01E5
:10329000E951FE4F90819E012C5F3F4F81E0692FE5
:1032A000A9010E9467278C81882371F3ED81FE813B
:1032B0008B818083EF81F8858A81808389818987EA
:1032C0001CC08B818F5F8B838B81843008F4B7CFD8
:1032D0008A81882F90E0FC01ED51FE4F908183E0C0
:1032E000692F41E00E940B268A818F5F8A838A8141
:1032F000843008F496CF89818987898529960FB60D
:10330000F894DEBF0FBECDBFCF91DF910895DF935C
:10331000CF9300D0CDB7DEB79A838983E981FA8154
:103320008081E981FA819181692F40E00E940B261A
:10333000E981FA818081E981FA819281692F41E0F6
:103340000E940B260F900F90CF91DF910895DF938D
:10335000CF9300D0CDB7DEB79A838983E981FA8114
:103360008081E981FA819281692F40E00E940B26D9
:10337000E981FA818081E981FA819181692F41E0B7
:103380000E940B260F900F90CF91DF910895DF934D
:10339000CF9300D0CDB7DEB79A838983E981FA81D4
:1033A0008081E981FA819181692F40E00E940B269A
:1033B000E981FA818081E981FA819281692F40E077
:1033C0000E940B260F900F90CF91DF910895DF930D
:1033D000CF9300D00F92CDB7DEB79B838A838A81CB
:1033E0009B81CC01A0E0B0E0BC01CD010E940705AB
:1033F000DC01CB01BC01CD0120E030E44CE951E41B
:103400000E941903DC01CB01BC01CD010E944900DF
:10341000DC01CB01898389810F900F900F90CF91B0
:10342000DF910895DF93CF9300D000D0CDB7DEB702
:1034300089838981982F917080E063E0492F0E94F1
:103440000B268981882F90E0827090701C820097F3
:1034500011F081E08C8380E064E04C810E940B26B7
:103460008981882F90E0847090701B82009711F002
:1034700081E08B8380E065E04B810E940B2689818F
:10348000882F90E0887090701A82009711F081E088
:103490008A8380E066E04A810E940B260F900F909D
:1034A0000F900F90CF91DF910895DF93CF93CDB719
:1034B000DEB72E970FB6F894DEBF0FBECDBF80E00B
:1034C00062E041E00E940B2680E090E0A0E0B0E4E2
:1034D0008B879C87AD87BE876B857C858D859E8518
:1034E00020E030E04AE755E40E941F02DC01CB01F6
:1034F0008F839887A987BA876F81788589859A8510
:1035000020E030E040E85FE30E94250488232CF4AB
:1035100081E090E09E838D833FC06F8178858985AF
:103520009A8520E03FEF4FE757E40E94C503181645
:103530004CF56B857C858D859E8520E030E040E2F2
:1035400051E40E941F02DC01CB01BC01CD010E94AD
:103550004900DC01CB019E838D830FC080E991E09F
:103560009C838B838B819C810197F1F79C838B8358
:103570008D819E8101979E838D838D819E81009791
:1035800069F714C06F81788589859A850E94490002
:10359000DC01CB019E838D838D819E819A838983FB
:1035A00089819A810197F1F79A83898380E062E0AB
:1035B00040E00E940B262E960FB6F894DEBF0FBE99
:1035C000CDBFCF91DF910895DF93CF93CDB7DEB715
:1035D00028970FB6F894DEBF0FBECDBF9E838D83B4
:1035E0006F83488788858C83888586958A838885BC
:1035F00089838F818823E9F188858F5F898339C02A
:103600008C81282F30E08D819E81FC01E20FF31F19
:1036100080818B838C81282F30E08D819E81DC011D
:10362000A20FB31F8981282F30E08C81882F90E072
:10363000A901481B590BCA019C018D819E81FC0187
:10364000E20FF31F80818C938981282F30E08C81D9
:10365000882F90E0A901481B590BCA019C018D815C
:103660009E81FC01E20FF31F8B8180838C8181504E
:103670008C839C818A81891718F228960FB6F8945A
:10368000DEBF0FBECDBFCF91DF9108950F931F9383
:10369000DF93CF93CDB7DEB728970FB6F894DEBF90
:1036A0000FBECDBF6B837C838D839E8358874F83F2
:1036B0008B819C81AD81BE810097A105B10551F43C
:1036C000EF81F88580E380838F819885FC013196B6
:1036D000108286C01A8219828B819C81AD81BE8145
:1036E000BB230CF04DC08A81282F30E08F81988554
:1036F000FC01E20FF31F8DE280838A818F5F8A8352
:103700008B819C81AD81BE81B095A095909581956E
:103710009F4FAF4FBF4F8B839C83AD83BE8381E0B0
:1037200089832EC08A81282F30E08F8198858C0173
:10373000020F131F8B819C81AD81BE812AE030E096
:1037400040E050E0BC01CD010E94FA2ADC01CB012F
:10375000805DF80180838B819C81AD81BE812AE0F0
:1037600030E040E050E0BC01CD010E94FA2ADA01CD
:10377000C9018B839C83AD83BE838A818F5F8A83DB
:103780008B819C81AD81BE810097A105B10551F669
:103790008A81813130F08F819885FC01709610828A
:1037A00009C08A81282F30E08F819885FC01E20FC3
:1037B000F31F10828981882351F48A81282F215098
:1037C0008F81988560E0422F0E94E41A09C08A81A7
:1037D000282F21508F81988561E0422F0E94E41AA2
:1037E00028960FB6F894DEBF0FBECDBFCF91DF9104
:1037F0001F910F910895DF93CF930F92CDB7DEB74E
:10380000898380E061E040E00E940B2689818295F7
:103810008F700E94121A0E94551A89810E94121AF2
:103820000E94551A0F90CF91DF910895DF93CF93A7
:103830000F92CDB7DEB7898380E061E041E00E945E
:103840000B26898182958F700E94121A0E94551A48
:1038500089810E94121A0E94551A0F90CF91DF9110
:103860000895DF93CF93CDB7DEB72E970FB6F894B8
:10387000DEBF0FBECDBF80E090E0A0E2B2E48B8758
:103880009C87AD87BE876B857C858D859E8520E076
:1038900030E04AE755E40E941F02DC01CB018F8330
:1038A0009887A987BA876F81788589859A8520E06E
:1038B00030E040E85FE30E94250488232CF481E097
:1038C00090E09E838D833FC06F81788589859A853E
:1038D00020E03FEF4FE757E40E94C50318164CF570
:1038E0006B857C858D859E8520E030E040E251E44B
:1038F0000E941F02DC01CB01BC01CD010E944900E6
:10390000DC01CB019E838D830FC080E991E09C8315
:103910008B838B819C810197F1F79C838B838D81B5
:103920009E8101979E838D838D819E81009769F78B
:1039300014C06F81788589859A850E944900DC01D1
:10394000CB019E838D838D819E819A83898389811A
:103950009A810197F1F79A83898382E20E94FB1B87
:1039600088E00E94121A0E94551A8CE00E94FB1BEC
:1039700081E00E94FB1B2E960FB6F894DEBF0FBEAF
:10398000CDBFCF91DF910895DF93CF9300D00F92F9
:10399000CDB7DEB78A836B838B81882F90E00024BC
:1039A000969587950794969587950794982F802DDF
:1039B000982F8A81890F8983898180688983898189
:1039C0000E94FB1B0F900F900F90CF91DF910895F5
:1039D000DF93CF9300D000D000D0CDB7DEB78C837B
:1039E0007E836D8381E08B831A828C81882F90E0A7
:1039F000880F991F880F991F880F991F89838D81C0
:103A00009E810097C9F089818064898389810E94A1
:103A1000FB1B0EC08A81282F30E08D819E81FC0126
:103A2000E20FF31F80810E94161C8A818F5F8A83B8
:103A30008A81883078F302C082E08B838B8126965E
:103A40000FB6F894DEBF0FBECDBFCF91DF910895C2
:103A5000DF93CF9300D00F92CDB7DEB79B838A83DD
:103A600019820EC08981282F30E08A819B81FC0158
:103A7000E20FF31F80810E94161C89818F5F89836A
:103A80008981282F30E08A819B81FC01E20FF31F9E
:103A90008081882339F70F900F900F90CF91DF919D
:103AA0000895DF93CF93CDB7DEB764970FB6F89440
:103AB000DEBF0FBECDBF698B7A8B8B8B9C8B8989C8
:103AC0009A89AB89BC89BC01CD019E012F5F3F4F14
:103AD000A9010E94461BCE0101960E94281D6496F2
:103AE0000FB6F894DEBF0FBECDBFCF91DF91089522
:103AF000DF93CF93CDB7DEB768970FB6F894DEBFEC
:103B00000FBECDBF698B7A8B8B8B9C8B2D8B3E8BA5
:103B10004F8B588F89899A89AB89BC89BC01CD01AB
:103B20009E012F5F3F4FA9010E94461BCE010196C7
:103B30000E94281D8EE20E94161C8D899E89AF89E5
:103B4000B88DBC01CD019E012F5F3F4FA9010E949E
:103B5000461BCE0101960E94281D68960FB6F89468
:103B6000DEBF0FBECDBFCF91DF910895DF93CF931E
:103B70000F92CDB7DEB71982AAE2B0E0EAE2F0E038
:103B8000808188608C93AAE2B0E0EAE2F0E0808174
:103B900080618C9389818F7B898389818F7E8983E2
:103BA00089818F7D89838981877F898389818260EB
:103BB0008983898184608983898180688983E0E43D
:103BC000F0E089818083E9E2F0E087E680830F906E
:103BD000CF91DF910895DF93CF930F92CDB7DEB7EA
:103BE0008983EBE2F0E08081882F90E08072907012
:103BF0000097B9F3ECE2F0E0898180830F90CF91D8
:103C0000DF910895DF93CF93CDB7DEB7EBE2F0E01D
:103C100080818823DCF7ECE2F0E08081CF91DF91B6
:103C20000895DF93CF9300D00F92CDB7DEB79B837B
:103C30008A8319820EC08981282F30E08A819B8176
:103C4000FC01E20FF31F80810E94EB1D89818F5FD1
:103C500089838981282F30E08A819B81FC01E20FD2
:103C6000F31F8081882339F70F900F900F90CF9129
:103C7000DF9108950F931F93DF93CF93CDB7DEB7F6
:103C800062970FB6F894DEBF0FBECDBF6F87788BFB
:103C9000898B9A8B8F859889A989BA890097A10504
:103CA000B10521F480E38C831D8286C01B821982BA
:103CB0008F859889A989BA89BB230CF04DC08B8167
:103CC000282F30E0CE010496FC01E20FF31F8DE2B5
:103CD00080838B818F5F8B838F859889A989BA892F
:103CE000B095A095909581959F4FAF4FBF4F8F870F
:103CF000988BA98BBA8B81E089832EC08B81082F8A
:103D000010E08F859889A989BA892AE030E040E0DF
:103D100050E0BC01CD010E94FA2ADC01CB01282F22
:103D2000205DCE010496FC01E00FF11F20838F85FA
:103D30009889A989BA892AE030E040E050E0BC01C6
:103D4000CD010E94FA2ADA01C9018F87988BA98BCD
:103D5000BA8B8B818F5F8B838F859889A989BA896C
:103D60000097A105B10551F68B81282F30E0CE01D7
:103D70000496FC01E20FF31F10828B8181508A832D
:103D800010C08A81282F332727FD3095CE01049655
:103D9000FC01E20FF31F80810E94EB1D8A8181509C
:103DA0008A838A81282F332727FD30958981882FA0
:103DB00090E0281739072CF762960FB6F894DEBF0B
:103DC0000FBECDBFCF91DF911F910F910895DF936B
:103DD000CF9300D000D0CDB7DEB769837A838B83D1
:103DE0009C8389819A81AB81BC81BC01CD010E94F9
:103DF0003A1E0F900F900F900F90CF91DF91089582
:103E0000DF93CF93CDB7DEB728970FB6F894DEBF18
:103E10000FBECDBF6D837E838F8398876D817E813A
:103E20008F8198850E94B304DC01CB0189839A833A
:103E3000AB83BC8389819A81AB81BC81BC01CD01FC
:103E40000E943A1E8EE20E94EB1D69817A818B816D
:103E50009C810E9455049B01AC016D817E818F8104
:103E600098850E94C101DC01CB01BC01CD0120E09D
:103E700030E44CE156E40E941F02DC01CB01BC019E
:103E8000CD010E94B304DC01CB01BC01CD010E9435
:103E90003A1E28960FB6F894DEBF0FBECDBFCF9165
:103EA000DF910895DF93CF93CDB7DEB7A7E2B0E0FF
:103EB000E7E2F0E080818F778C93A7E2B0E0E7E261
:103EC000F0E0808180648C93A7E2B0E0E7E2F0E06C
:103ED000808180628C93A6E2B0E0E6E2F0E080812F
:103EE000887F8C93A6E2B0E0E6E2F0E08081876014
:103EF0008C93A6E2B0E0E6E2F0E0808180688C93EB
:103F0000CF91DF910895DF93CF93CDB7DEB7289798
:103F10000FB6F894DEBF0FBECDBF8E8378876F8358
:103F200081E08D838F819885009709F470C080911E
:103F3000EB01813009F068C082E08093EB011982C7
:103F40001A821B821C82A7E2B0E0E7E2F0E08081E7
:103F5000807E8C93A7E2B0E0E7E2F0E090818E8172
:103F6000892B8C93A6E2B0E0E6E2F0E080818064E9
:103F70008C930BC089819A81AB81BC810196A11D74
:103F8000B11D89839A83AB83BC83E6E2F0E0808134
:103F9000882F90E080719070009761F489819A81F8
:103FA000AB81BC8180342BE492072CE4A20720E093
:103FB000B20700F389819A81AB81BC8180342BE404
:103FC00092072CE4A20720E0B20719F484E08D8365
:103FD00010C0A6E2B0E0E6E2F0E0808180618C9360
:103FE000E5E2F0E08081882F90E0EF81F885918311
:103FF000808381E08093EB01A6E2B0E0E6E2F0E0AE
:10400000808180618C9305C085E08D8302C083E050
:104010008D838D8128960FB6F894DEBF0FBECDBF7D
:10402000CF91DF910895DF93CF9300D000D000D0DF
:10403000CDB7DEB78A837C836B835E834D8381E05B
:1040400089838B819C810097D9F18D819E81009716
:10405000B9F18091EB01813081F582E08093EB0131
:104060008B819C8190931902809318028D819E818F
:1040700090931B0280931A02A7E2B0E0E7E2F0E01F
:104080008081807E8C93A7E2B0E0E7E2F0E090814F
:104090008A81892B8C93A6E2B0E0E6E2F0E0808191
:1040A00080648C93A6E2B0E0E6E2F0E08081886074
:1040B0008C9381E08093EB0105C085E0898302C089
:1040C00083E08983898126960FB6F894DEBF0FBE00
:1040D000CDBFCF91DF910895DF93CF9300D000D073
:1040E000CDB7DEB79B838A836C8381E089838A8125
:1040F0009B81009709F447C082E08093EC018A819C
:104100009B8190931F0280931E028C8180931D02DD
:1041100080911C02282F30E0C901880F991F880F59
:10412000991F280F391F8A819B81FC01E20FF31F21
:10413000608180911C02282F30E0C901880F991FEF
:10414000880F991F280F391F8A819B81FC01E20F7C
:10415000F31F4181528180911C02282F30E0C90158
:10416000880F991F880F991F280F391F8A819B81FB
:10417000FC01E20FF31F23813481862FBA01A901CC
:104180000E94132002C083E0898389810F900F90E1
:104190000F900F90CF91DF910895DF93CF93CDB71C
:1041A000DEB780911A0290911B02009729F0E091EE
:1041B0001A02F0911B02099580911C028F5F809377
:1041C0001C0290911C0280911D02981741F41092DC
:1041D0001C0210921D0281E08093EC013FC04091CF
:1041E0001E0250911F0280911C02282F30E0C9014D
:1041F000880F991F880F991F820F931FFA01E80FEC
:10420000F91FA08140911E0250911F0280911C0253
:10421000282F30E0C901880F991F880F991F820F3E
:10422000931FFA01E80FF91F6181728140911E020C
:1042300050911F0280911C02282F30E0C901880F85
:10424000991F880F991F820F931FFA01E80FF91F1A
:10425000238134818A2FA9010E941320CF91DF91FD
:1042600008951F920F920FB60F9211242F933F9330
:104270004F935F936F937F938F939F93AF93BF936E
:10428000EF93FF93DF93CF93CDB7DEB7A0911802E2
:10429000B0911902E5E2F0E08081882F90E08D93E3
:1042A0009C93A6E2B0E0E6E2F0E08081877F8C9309
:1042B0008091EC01813061F480911A0290911B028F
:1042C000009761F0E0911A02F0911B02099506C077
:1042D0008091EC01823011F40E94CD20CF91DF91CA
:1042E000FF91EF91BF91AF919F918F917F916F91CE
:1042F0005F914F913F912F910F900FBE0F901F90A4
:104300001895DF93CF9300D00F92CDB7DEB7898396
:104310008981282F30E03B832A838A819B818031E9
:104320009105E9F12A813B812131310584F48A81AB
:104330009B818430910519F12A813B812830310518
:1043400031F18A819B818230910589F047C02A81B1
:104350003B812034310599F18A819B818038910518
:10436000B1F12A813B812032310509F137C0A6E243
:10437000B0E0E6E2F0E0808181708C932FC0A6E28D
:10438000B0E0E6E2F0E0808182708C9327C0A6E284
:10439000B0E0E6E2F0E0808183708C931FC0A6E27B
:1043A000B0E0E6E2F0E0808184708C9317C0A6E272
:1043B000B0E0E6E2F0E0808185708C930FC0A6E269
:1043C000B0E0E6E2F0E0808186708C9307C0A6E260
:1043D000B0E0E6E2F0E0808187708C930F900F9060
:1043E0000F90CF91DF910895DF93CF93CDB7DEB7D4
:1043F0007894CF91DF910895DF93CF93CDB7DEB757
:10440000F894CF91DF910895DF93CF9300D000D03F
:10441000CDB7DEB78A837C836B8381E089838B8110
:104420009C81009799F08A81833068F48A81882F73
:1044300090E0880F991FFC01E05EFD4F8B819C810D
:104440009183808305C082E0898302C083E08983F1
:1044500089810F900F900F900F90CF91DF91089569
:104460001F920F920FB60F9211242F933F934F93E9
:104470005F936F937F938F939F93AF93BF93EF93CC
:10448000FF93DF93CF93CDB7DEB780912002909159
:104490002102009729F0E0912002F0912102099574
:1044A000CF91DF91FF91EF91BF91AF919F918F914C
:1044B0007F916F915F914F913F912F910F900FBE20
:1044C0000F901F9018951F920F920FB60F92112404
:1044D0002F933F934F935F936F937F938F939F930C
:1044E000AF93BF93EF93FF93DF93CF93CDB7DEB737
:1044F0008091220290912302009729F0E0912202FC
:10450000F09123020995CF91DF91FF91EF91BF9137
:10451000AF919F918F917F916F915F914F913F915B
:104520002F910F900FBE0F901F9018951F920F9212
:104530000FB60F9211242F933F934F935F936F9376
:104540007F938F939F93AF93BF93EF93FF93DF93EB
:10455000CF93CDB7DEB780912402909125020097CA
:1045600029F0E0912402F09125020995CF91DF9185
:10457000FF91EF91BF91AF919F918F917F916F913B
:104580005F914F913F912F910F900FBE0F901F9011
:104590001895DF93CF93CDB7DEB7A5E5B0E0E5E59D
:1045A000F0E0808181608C93A5E5B0E0E5E5F0E086
:1045B000808182608C93A5E5B0E0E5E5F0E0808144
:1045C0008B7F8C93A5E5B0E0E5E5F0E08081886025
:1045D0008C93A4E5B0E0E4E5F0E080818F7B8C93E0
:1045E000ABE5B0E0EBE5F0E0808180648C93ABE577
:1045F000B0E0EBE5F0E080818F778C93ABE5B0E045
:10460000EBE5F0E080818F7D8C93CF91DF91089571
:10461000DF93CF93CDB7DEB729970FB6F894DEBFFF
:104620000FBECDBF8A836B8381E089838A81882313
:1046300009F05FC08B81282F30E039872887888573
:1046400099858230910529F12885398523303105F6
:1046500034F4888599858130910561F047C02885BB
:1046600039852330310521F188859985843091057C
:1046700071F13CC0A5E5B0E0E5E5F0E080818E7F1A
:104680008C93A5E5B0E0E5E5F0E080818D7F8C932B
:10469000BBC0A5E5B0E0E5E5F0E0808181608C93EA
:1046A000A5E5B0E0E5E5F0E080818D7F8C93ACC0BE
:1046B000A5E5B0E0E5E5F0E080818E7F8C93A5E58F
:1046C000B0E0E5E5F0E0808182608C939DC0A5E5D7
:1046D000B0E0E5E5F0E0808181608C93A5E5B0E095
:1046E000E5E5F0E0808182608C938EC082E0898372
:1046F0008BC08A81813009F05FC08B81282F30E028
:104700003F832E838E819F818230910529F12E81F6
:104710003F812330310534F48E819F8181309105B2
:1047200061F047C02E813F812330310521F18E8118
:104730009F818430910571F13CC0A5E5B0E0E5E5CD
:10474000F0E080818B7F8C93A5E5B0E0E5E5F0E0BB
:104750008081877F8C9358C0A5E5B0E0E5E5F0E067
:10476000808184608C93A5E5B0E0E5E5F0E0808190
:10477000877F8C9349C0A5E5B0E0E5E5F0E0808156
:104780008B7F8C93A5E5B0E0E5E5F0E08081886063
:104790008C933AC0A5E5B0E0E5E5F0E08081846067
:1047A0008C93A5E5B0E0E5E5F0E0808188608C932E
:1047B0002BC082E0898328C08A81823019F58B81E1
:1047C000282F30E03D832C838C819D81833091059F
:1047D00031F02C813D812430310549F010C0A4E531
:1047E000B0E0E4E5F0E080818F7B8C930DC0A4E520
:1047F000B0E0E4E5F0E0808180648C9305C082E065
:10480000898302C082E08983898129960FB6F89452
:10481000DEBF0FBECDBFCF91DF910895DF93CF9361
:1048200000D000D0CDB7DEB78A8381E089838A814A
:10483000282F30E03C832B838B819C818130910534
:1048400089F02B813C8122303105A1F08B819C8144
:104850000097C1F4ABE5B0E0EBE5F0E08081806467
:104860008C9312C0ABE5B0E0EBE5F0E080818068AE
:104870008C930AC0ABE5B0E0EBE5F0E080818062AC
:104880008C9302C082E0898389810F900F900F90F2
:104890000F90CF91DF910895DF93CF9300D000D098
:1048A000CDB7DEB78A8381E089838A81282F30E003
:1048B0003C832B838B819C818130910589F02B81F6
:1048C0003C8122303105A1F08B819C810097C1F49D
:1048D000ABE5B0E0EBE5F0E080818F7B8C9312C01C
:1048E000ABE5B0E0EBE5F0E080818F778C930AC018
:1048F000ABE5B0E0EBE5F0E080818F7D8C9302C00A
:1049000082E0898389810F900F900F900F90CF9153
:10491000DF910895DF93CF93CDB7DEB7EAE3F0E000
:104920008EE78083E7E3F0E080E88083E4E3F0E073
:1049300088E18083E1E3F0E08BE38083EBE3F0E068
:104940001082E8E3F0E080E78083E5E3F0E01082A6
:10495000E2E3F0E088E38083CF91DF910895DF9375
:10496000CF93CDB7DEB728970FB6F894DEBF0FBE52
:10497000CDBF8A836B834C8381E089838B818830B0
:1049800008F0F4C08C81882309F077C08A81282F31
:1049900030E038872F838F8198858130910559F1D8
:1049A0002F813885223031052CF48F81988500972E
:1049B00069F060C02F8138852230310589F18F81FF
:1049C00098858330910509F440C054C0AAE3B0E053
:1049D000EAE3F0E08081482F8B81282F30E081E0EE
:1049E00090E0022E02C0880F991F0A94E2F780958A
:1049F00084238C93BDC0A7E3B0E0E7E3F0E08081BF
:104A0000482F8B81282F30E081E090E0022E02C0F9
:104A1000880F991F0A94E2F7809584238C93A8C08D
:104A2000A4E3B0E0E4E3F0E08081482F8B81282FFD
:104A300030E081E090E0022E02C0880F991F0A94B6
:104A4000E2F7809584238C9393C0A1E3B0E0E1E387
:104A5000F0E08081482F8B81282F30E081E090E0CA
:104A6000022E02C0880F991F0A94E2F780958423D2
:104A70008C937EC082E089837BC08C81813009F079
:104A800072C08A81282F30E03E832D838D819E81E4
:104A90008130910549F12D813E81223031052CF480
:104AA0008D819E81009761F05BC02D813E81223017
:104AB000310571F18D819E8183309105E9F150C0FE
:104AC000AAE3B0E0EAE3F0E08081482F8B81282F51
:104AD00030E081E090E0022E02C0880F991F0A9416
:104AE000E2F7842B8C9344C0A7E3B0E0E7E3F0E067
:104AF0008081482F8B81282F30E081E090E0022ECA
:104B000002C0880F991F0A94E2F7842B8C9330C05F
:104B1000A4E3B0E0E4E3F0E08081482F8B81282F0C
:104B200030E081E090E0022E02C0880F991F0A94C5
:104B3000E2F7842B8C931CC0A1E3B0E0E1E3F0E04A
:104B40008081482F8B81282F30E081E090E0022E79
:104B500002C0880F991F0A94E2F7842B8C9308C037
:104B600082E0898305C082E0898302C082E0898374
:104B7000898128960FB6F894DEBF0FBECDBFCF91C6
:104B8000DF910895DF93CF9300D000D00F92CDB77F
:104B9000DEB78A836B8381E089838A81282F30E0A6
:104BA0003D832C838C819D8181309105D1F02C81B6
:104BB0003D81223031052CF48C819D81009761F07C
:104BC0001FC02C813D812230310581F08C819D8177
:104BD0008330910581F014C0EAE3F0E08B8180839B
:104BE00011C0E7E3F0E08B8180830CC0E4E3F0E0E8
:104BF0008B81808307C0E1E3F0E08B81808302C07A
:104C000082E0898389810F900F900F900F900F9011
:104C1000CF91DF910895DF93CF93CDB7DEB728977B
:104C20000FB6F894DEBF0FBECDBF8A836B834C8373
:104C300081E089838B81883008F0F4C08C818823DF
:104C400009F077C08A81282F30E038872F838F8141
:104C500098858130910559F12F81388522303105B1
:104C60002CF48F819885009769F060C02F8138857A
:104C70002230310589F18F8198858330910509F4BF
:104C800040C054C0ABE3B0E0EBE3F0E08081482FDC
:104C90008B81282F30E081E090E0022E02C0880F47
:104CA000991F0A94E2F7809584238C93BDC0A8E3F2
:104CB000B0E0E8E3F0E08081482F8B81282F30E0DE
:104CC00081E090E0022E02C0880F991F0A94E2F75B
:104CD000809584238C93A8C0A5E3B0E0E5E3F0E0E1
:104CE0008081482F8B81282F30E081E090E0022ED8
:104CF00002C0880F991F0A94E2F7809584238C9351
:104D000093C0A2E3B0E0E2E3F0E08081482F8B8122
:104D1000282F30E081E090E0022E02C0880F991F1A
:104D20000A94E2F7809584238C937EC082E0898385
:104D30007BC08C81813009F072C08A81282F30E0DD
:104D40003E832D838D819E818130910549F12D8196
:104D50003E81223031052CF48D819E81009761F0D7
:104D60005BC02D813E812230310571F18D819E81A4
:104D700083309105E9F150C0ABE3B0E0EBE3F0E044
:104D80008081482F8B81282F30E081E090E0022E37
:104D900002C0880F991F0A94E2F7842B8C9344C0B9
:104DA000A8E3B0E0E8E3F0E08081482F8B81282F72
:104DB00030E081E090E0022E02C0880F991F0A9433
:104DC000E2F7842B8C9330C0A5E3B0E0E5E3F0E09C
:104DD0008081482F8B81282F30E081E090E0022EE7
:104DE00002C0880F991F0A94E2F7842B8C931CC091
:104DF000A2E3B0E0E2E3F0E08081482F8B81282F2E
:104E000030E081E090E0022E02C0880F991F0A94E2
:104E1000E2F7842B8C9308C082E0898305C082E08E
:104E2000898302C082E08983898128960FB6F8942D
:104E3000DEBF0FBECDBFCF91DF910895DF93CF933B
:104E400000D000D00F92CDB7DEB78A836B8381E0AC
:104E500089838A81282F30E03D832C838C819D813A
:104E600081309105D1F02C813D81223031052CF427
:104E70008C819D81009761F01FC02C813D81223083
:104E8000310581F08C819D818330910581F014C0C2
:104E9000EBE3F0E08B81808311C0E8E3F0E08B81ED
:104EA00080830CC0E5E3F0E08B81808307C0E2E300
:104EB000F0E08B81808302C082E0898389810F903A
:104EC0000F900F900F900F90CF91DF910895DF9387
:104ED000CF93CDB7DEB727970FB6F894DEBF0FBEDE
:104EE000CDBF8A836B835D834C8381E089838C8112
:104EF0009D81009709F47BC08B81883008F074C0D5
:104F00008A81282F30E03F832E834E815F8141309C
:104F1000510559F18E819F818230910534F42E81A3
:104F20003F812115310569F05CC04E815F814230BF
:104F3000510579F18E819F818330910509F43DC03F
:104F400050C0E9E3F0E08081282F30E08B81882F8A
:104F500090E0A90102C0559547958A95E2F7CA01EC
:104F60008170EC81FD81808344C0E6E3F0E08081C4
:104F7000282F30E08B81882F90E0A90102C0559541
:104F800047958A95E2F7CA018170EC81FD818083A3
:104F900030C0E3E3F0E08081282F30E08B81882F60
:104FA00090E0A90102C0559547958A95E2F7CA019C
:104FB0008170EC81FD8180831CC0E0E3F0E08081A2
:104FC000282F30E08B81882F90E0A90102C05595F1
:104FD00047958A95E2F7CA018170EC81FD81808353
:104FE00008C082E0898305C082E0898302C083E033
:104FF0008983898127960FB6F894DEBF0FBECDBF97
:10500000CF91DF910895DF93CF93CDB7DEB7279788
:105010000FB6F894DEBF0FBECDBF8A836B835D836E
:105020004C8381E089838C819D81009709F47BC04A
:105030008B81883008F074C08A81282F30E03F834C
:105040002E834E815F814130510559F18E819F81C0
:105050008230910534F42E813F812115310569F0AC
:105060005CC04E815F814230510579F18E819F8114
:105070008330910509F43DC050C0EAE3F0E080813F
:10508000282F30E08B81882F90E0A90102C0559530
:1050900047958A95E2F7CA018170EC81FD81808392
:1050A00044C0E7E3F0E08081282F30E08B81882F37
:1050B00090E0A90102C0559547958A95E2F7CA018B
:1050C0008170EC81FD81808330C0E4E3F0E0808179
:1050D000282F30E08B81882F90E0A90102C05595E0
:1050E00047958A95E2F7CA018170EC81FD81808342
:1050F0001CC0E1E3F0E08081282F30E08B81882F15
:1051000090E0A90102C0559547958A95E2F7CA013A
:105110008170EC81FD81808308C082E0898305C0B5
:1051200082E0898302C083E08983898127960FB654
:10513000F894DEBF0FBECDBFCF91DF910895DF930E
:10514000CF9300D000D00F92CDB7DEB78A836B83A8
:1051500081E089838B81883008F072C08A81282F92
:1051600030E03D832C838C819D818130910549F114
:105170002C813D81223031052CF48C819D8100975A
:1051800061F05BC02C813D812230310571F18C8151
:105190009D8183309105E9F150C0ABE3B0E0EBE3D2
:1051A000F0E08081482F8B81282F30E081E090E073
:1051B000022E02C0880F991F0A94E2F784278C936D
:1051C00041C0A8E3B0E0E8E3F0E08081482F8B81A4
:1051D000282F30E081E090E0022E02C0880F991F56
:1051E0000A94E2F784278C932DC0A5E3B0E0E5E3B1
:1051F000F0E08081482F8B81282F30E081E090E023
:10520000022E02C0880F991F0A94E2F784278C931C
:1052100019C0A2E3B0E0E2E3F0E08081482F8B8187
:10522000282F30E081E090E0022E02C0880F991F05
:105230000A94E2F784278C9305C082E0898302C038
:1052400082E0898389810F900F900F900F900F90CB
:10525000CF91DF910895DF93CF9300D00F92CDB718
:10526000DEB78A836B8381E089838A816B8140E02A
:105270000E94AF2489838981813031F48A816B81D6
:1052800041E00E940B26898389810F900F900F9037
:10529000CF91DF910895DF93CF93CDB7DEB781E053
:1052A00080932602CF91DF910895DF93CF93CDB7FE
:1052B000DEB7E0970FB6F894DEBF0FBECDBF0E94F9
:1052C0008A240E94C9220E94521F0E94B61D0E9479
:1052D000F4210E94311C2BE439E280E0B9010E94E4
:1052E0000422CE014E969DA78CA7E7EFF1E0FFA721
:1052F000EEA7FEE0F8ABEEA5FFA500808EA59FA56A
:1053000001969FA78EA7ECA5FDA500828CA59DA563
:1053100001969DA78CA798A9915098ABE8A9EE2378
:1053200051F7CE014E960E946B0C80E090E0A6E112
:10533000B3E4898F9A8FAB8FBC8F698D7A8D8B8DFB
:105340009C8D20E030E04AE755E40E941F02DC011A
:10535000CB018D8B9E8BAF8BB88F6D897E898F89AA
:10536000988D20E030E040E85FE30E942504882328
:105370002CF481E090E09C8B8B8B3FC06D897E8903
:105380008F89988D20E03FEF4FE757E40E94C503D7
:1053900018164CF5698D7A8D8B8D9C8D20E030E050
:1053A00040E251E40E941F02DC01CB01BC01CD01AF
:1053B0000E944900DC01CB019C8B8B8B0FC080E9E4
:1053C00091E09A8B898B89899A890197F1F79A8B59
:1053D000898B8B899C8901979C8B8B8B8B899C8972
:1053E000009769F714C06D897E898F89988D0E9416
:1053F0004900DC01CB019C8B8B8B8B899C89988B22
:105400008F878F8598890197F1F7988B8F87809187
:105410002602813009F089CF0E94EA0786E292E0F5
:105420000E94F9088D8F8D8D813039F486E292E0EB
:105430000E94CE0C1092260278CF8D8D823021F002
:105440008D8D833009F071CF81E00E94FB1B80E0DD
:1054500060E00E94C41C8EEA90E00E94281D80E05B
:1054600090E0AAEFB4E48B879C87AD87BE876B85FD
:105470007C858D859E8520E030E04AE755E40E94DA
:105480001F02DC01CB018F839887A987BA876F81C0
:10549000788589859A8520E030E040E85FE30E94C6
:1054A000250488232CF481E090E09E838D833FC007
:1054B0006F81788589859A8520E03FEF4FE757E433
:1054C0000E94C50318164CF56B857C858D859E85DD
:1054D00020E030E040E251E40E941F02DC01CB01F9
:1054E000BC01CD010E944900DC01CB019E838D836C
:1054F0000FC080E991E09C838B838B819C81019715
:10550000F1F79C838B838D819E8101979E838D8390
:105510008D819E81009769F714C06F817885898598
:105520009A850E944900DC01CB019E838D838D8189
:105530009E819A83898389819A810197F1F79A8361
:10554000898381E00E94FB1BF0CE629FD001739F94
:10555000F001829FE00DF11D649FE00DF11D929F0F
:10556000F00D839FF00D749FF00D659FF00D99274E
:10557000729FB00DE11DF91F639FB00DE11DF91F72
:10558000BD01CF0111240895AA1BBB1B51E107C027
:10559000AA1FBB1FA617B70710F0A61BB70B881FC3
:1055A000991F5A95A9F780959095BC01CD01089552
:1055B000A1E21A2EAA1BBB1BFD010DC0AA1FBB1F17
:1055C000EE1FFF1FA217B307E407F50720F0A21B89
:1055D000B30BE40BF50B661F771F881F991F1A94F6
:1055E00069F760957095809590959B01AC01BD0120
:1055F000CF01089597FB092E05260ED057FD04D044
:10560000D7DF0AD0001C38F450954095309521958D
:105610003F4F4F4F5F4F0895F6F7909580957095E7
:1056200061957F4F8F4F9F4F08952F923F924F92DA
:105630005F926F927F928F929F92AF92BF92CF9222
:10564000DF92EF92FF920F931F93CF93DF93CDB72B
:10565000DEB7CA1BDB0B0FB6F894DEBF0FBECDBFA3
:1056600009942A88398848885F846E847D848C8474
:105670009B84AA84B984C884DF80EE80FD800C817D
:105680001B81AA81B981CE0FD11D0FB6F894DEBF60
:0C5690000FBECDBFED010895F894FFCFD0
:10569C00456E74657220494400456E7465722050E5
:1056AC00617373776F72640020747269616C73003C
:1056BC0077656C636F6D6500207468616E6B732E1B
:1056CC002E2E0054656D703A20004C4544533A2000
:1056DC0000202020202020202020202020004C4FA3
:1056EC004720494E204661696C64000000000000B0
:1056FC000000000001020203030303040404040479
:10570C000404040505050505050505050505050540
:10571C000505050606060606060606060606060620
:10572C00060606060606060606060606060606060D
:10573C0006060607070707070707070707070707F0
:10574C0007070707070707070707070707070707DD
:10575C0007070707070707070707070707070707CD
:10576C0007070707070707070707070707070707BD
:10577C0007070708080808080808080808080808A0
:10578C00080808080808080808080808080808088D
:10579C00080808080808080808080808080808087D
:1057AC00080808080808080808080808080808086D
:1057BC00080808080808080808080808080808085D
:1057CC00080808080808080808080808080808084D
:1057DC00080808080808080808080808080808083D
:1057EC00080808080808080808080808080808082D
:1057FC000808080E0E050E0C0406050E0E040E16F7
:10580C00040C140708092F0405062A0102032D7342
:10581C00006F2B020304050405060701017E0CB67C
:10582C009ECCDAFA0EFEDE07008813090000008811
:06583C0013090203040041
:00000001FF
